:0E07D20054656D703A002564002E002043002F
:10072600023E001E023C0014025400180252001041
:10073600022200000240000002422580024E000014
:10074700D3EF9400EE940040147D727C00ED1D7091
:0D075700011CED4C70F7EF1F70E61E80E3F3
:010764002272
:03000B0002049656
:10049600C0E0C0F0C0D075D000C000C004C005C028
:1004A60006C007E523452270270551E55170020570
:1004B60050AE54AF557C007D14120383EFB5511036
:1004C600EEB5500C7522007523017550007551006C
:1004D600E52364014522702E054DE54D7002054C5D
:1004E600AE52AF537C007D14120383D3E54D9FEECD
:1004F6006480F8E54C648098400C752200752300F2
:10050600754C00754D00D007D006D005D004D0003C
:07051600D0D0D0F0D0E0329C
:10060E00C2A07590F01207AE7BFF7A0779D27D01FA
:10061E00E4FF1206D712051D1207C2C2A0E523453C
:10062E00227002C2A0E523640145227002D2A012FC
:10063E00051DC3E549953FE548953E40047F018081
:10064E00027F00D3E53D9549E53C954840047E0187
:10065E0080027E00EE4F6004C2A18002D2A17FF420
:07066E007E0112076580B652
:1007C2005389F0E4F58A758C4CD2A9D2AFD28C222F
:10051D00C28C7F147E00120765120597750BFF754F
:10052D000C07750DD885480E85490F7B007A00792B
:10053D003012006A750BFF750C07750DD8854A0EC4
:10054D00854B0F7B007A00793612006A7F0D7E0095
:10055D001207657B007A0079307D017F061206D780
:10056D007BFF7A0779DB7D017F081206D77B007A46
:10057D000079367D017F091206D77BFF7A0779DD79
:0A058D007D017F0A1206D7D28C22EE
:10078300D2B77F02120003C2B77F147E001207653F
:07079300D2B77F0D02000345
:1006AC00E4F515C3E515940874809480501A30B79E
:1006BC00FD7F08120003E51625E0F51630B702059C
:0A06CC001620B7FD051580DBAF1600
:0106D6002201
:10059700120783D2B720B76E30B7FD7F281200034A
:1005A7001206AC7508008F091206AC750A008F0B8E
:1005B7001206AC750C008F0D1206AC750E008F0F6E
:1005C7001206AC8F147F19120003E509250BFFE50E
:1005D70008350AFEE50D2FFFE50C3EFEE50F2FFF60
:1005E700E50E3EFE7C00EFB51410ECB5060C850950
:1005F70010850B11850D12850F137548008512495B
:06060700754A0085134B4B
:01060D0022CA
:03000300DFFE22FB
:10076500D3EF9400EE940040147D6E7C00ED1D7077
:0D077500011CED4C70F7EF1F70E61E80E3D5
:010782002254
:0D07E000C2B5120675D2B4120679C2B42259
:0D07ED00D2B5120675D2B4120679C2B4223C
:10079A00ED70048F0B8005EF2440F50BE50B4480C8
:0407AA00FF0207E063
:1006D7008B088A09890A12079AAB08AA09A90A127C
:1006E700036A6013050AE50A7002050914F9120383
:0806F7006AFF1207ED80E22208
:1007AE007F381207E07F0C1207E07F061207E07F0A
:0407BE00010207E04D
:08067500C2B68F807F017E00F8
:10067D00D3EF9400EE940040257D26EDD3940074C5
:10068D0080948040127C82ECD394007480948040DE
:0E069D00031C80F31D80E4EF1F70D51E80D279
:0106AB00222C
:0300000002040AED
:0C040A00787FE4F6D8FD7581550204519E
:10036A00BB010689828A83E0225002E722BBFE0291
:09037A00E32289828A83E49322C4
:10038300EF8DF0A4A8F0CF8CF0A428CE8DF0A42E8E
:02039300FE2248
:10000E00E517240BF8E60517227808300702780B5F
:10001E00E475F0011203D402036A2000EB7F2ED2A6
:10002E00008018EF540F2490D43440D4FF30040BCA
:10003E00EF24BFB41A0050032461FFE518600215C7
:10004E0018051BE51B7002051A30070D7808E475BC
:10005E00F0011203D4EF0203C20206FF7403D207AB
:10006E008003E4C207F5178B088A09890AE4F5189C
:10007E00F51AF51BE51860077F2012004980F5750B
:10008E0019FFC201C200C202C203C205C206C208E3
:10009E00120017FF700D3007057F0012005AAF1BBC
:1000AE00AE1A22B4255FC2D5C204120017FF24D0A7
:1000BE00B40A00501A75F00A781830D50508B6FF44
:1000CE000106C6A426F620D5047002D20380D924D8
:1000DE00CFB41A00EF5004C2E5D20402025AD20184
:1000EE0080C6D20080C0D20280BCD2D580BAD205E2
:1000FE0080B47F201200492002077401B518004019
:10010E00F112000EFF120049020082D208D20680C0
:10011E009512000EFB12000EFA12000EF94A4B70E9
:10012E0006792B7A037BFF20022EE518602A7E00CB
:10013E008E8275830012039560060EEE651970F0BF
:10014E00C2D5EBC0E0EAC0E0E9C0E0EE1202A1D0F9
:10015E00E0F9D0E0FAD0E0FB12036AFF60AAEBC030
:10016E00E0EAC0E0E9C0E0120049D0E02401F9D095
:10017E00E03400FAD0E0FBE5190460DCD519D98033
:10018E00877BFF7A02799DD202809C79108002795A
:10019E0008C206C2088008D2D5790A8004790AC23C
:1001AE00D5E519047002F519E4FAFDFEFF12000EF2
:1001BE00FC7B0820011312000EFD7B1030000A128A
:1001CE00000EFE12000EFF7B20EC3382D592D5502E
:1001DE0013C3E43000069FFFE49EFEE42001039D5E
:1001EE00FDE49CFCE4CBF8C201EC700CCFCECDCC80
:1001FE00E824F8F870F38017C3EF33FFEE33FEED0B
:10020E0033FDEC33FCEB33FB994002FB0FD8E9EBEB
:10021E00300105F8D0E0C448B201C0E00AEC4D4E02
:10022E004F78207B0070C2EAB5190040BCC0E012C6
:10023E0002A3D0F0D0E0200104C4C0E0C4B201C0DB
:10024E00F0120032D0F0D5F0EB0200821203E4017E
:10025E001F5301995800F04C00EC42019D4F01A52F
:0F026E004401A54901054301AB55018F46018F9E
:10027D0045018F47034B5000F42D00F82E011B2B29
:10028D0000FC2301192003342A00B4480000011397
:10029D003F3F3F00790AA2D5200314300509B9105C
:1002AD00020404B9080104A2D5200602500104205D
:1002BD0002689202B518005034C0E07F2030031957
:1002CD007F30A20272067205500F1202FAC202C2EC
:1002DD0006C205C2087F30800F300503E9C0E01269
:1002ED000049300503D0E0F9D0E0B518CC30051742
:1002FD007F30B9100C1200497F583004077F788089
:10030D0003B908031200493002057F2D0200497F11
:10031D00202008F87F2B2006F322920280CF286E32
:10032D00756C6C2900D20112000E3001F8C20178F3
:10033D001830D50108F60200B42D5043495812006B
:10034D000E2403B405004001E49003469312003AD5
:0D035D00743A12003AD20375180402019997
:1004160002060EE493A3F8E493A34003F68001F2E8
:1004260008DFF48029E493A3F85407240CC8C333E7
:10043600C4540F4420C8834004F456800146F6DFB6
:10044600E4800B0102040810204080900726E47E19
:10045600019360BCA3FF543F30E509541FFEE493AB
:10046600A360010ECF54C025E060A840B8E493A372
:10047600FAE493A3F8E493A3C8C582C8CAC583CA9D
:10048600F0A3C8C582C8CAC583CADFE9DEE780BE55
:0107460000B2
:10039500BB010CE58229F582E5833AF583E022501D
:1003A50006E92582F8E622BBFE06E92582F8E22267
:0D03B500E58229F582E5833AF583E4932281
:1003C200BB010689828A83F0225002F722BBFE011A
:0203D200F32214
:1003D400FAE6FB0808E6F925F0F618E6CA3AF6222A
:1003E400D083D082F8E4937012740193700DA3A3A8
:1003F40093F8740193F5828883E4737402936860BC
:06040400EFA3A3A380DFBB
:1006FF00EFB40A07740D12070A740A309811A899FB
:10070F00B8130CC2983098FDA899C298B811F6305A
:07071F0099FDC299F5992232
:00000001FF
